{
  "contractName": "Token",
  "abi": [
    {
      "anonymous": false,
      "inputs": [
        {
          "indexed": false,
          "name": "from",
          "type": "address"
        },
        {
          "indexed": false,
          "name": "to",
          "type": "address"
        },
        {
          "indexed": false,
          "name": "amount",
          "type": "uint256"
        }
      ],
      "name": "trade",
      "type": "event"
    },
    {
      "anonymous": false,
      "inputs": [
        {
          "indexed": false,
          "name": "owner",
          "type": "address"
        },
        {
          "indexed": false,
          "name": "amount",
          "type": "uint256"
        }
      ],
      "name": "deposit",
      "type": "event"
    },
    {
      "constant": false,
      "inputs": [],
      "name": "PQD",
      "outputs": [],
      "payable": false,
      "stateMutability": "nonpayable",
      "type": "function"
    },
    {
      "constant": false,
      "inputs": [
        {
          "name": "acc",
          "type": "address"
        }
      ],
      "name": "depositEther",
      "outputs": [],
      "payable": true,
      "stateMutability": "payable",
      "type": "function"
    },
    {
      "constant": false,
      "inputs": [
        {
          "name": "owner",
          "type": "address"
        },
        {
          "name": "amount",
          "type": "uint256"
        }
      ],
      "name": "buyPQD",
      "outputs": [],
      "payable": false,
      "stateMutability": "nonpayable",
      "type": "function"
    },
    {
      "constant": true,
      "inputs": [
        {
          "name": "owner",
          "type": "address"
        }
      ],
      "name": "getWallet",
      "outputs": [
        {
          "name": "",
          "type": "uint256"
        }
      ],
      "payable": false,
      "stateMutability": "view",
      "type": "function"
    },
    {
      "constant": true,
      "inputs": [
        {
          "name": "acc",
          "type": "address"
        }
      ],
      "name": "checkEther",
      "outputs": [
        {
          "name": "",
          "type": "uint256"
        }
      ],
      "payable": false,
      "stateMutability": "view",
      "type": "function"
    },
    {
      "constant": false,
      "inputs": [
        {
          "name": "seller",
          "type": "address"
        },
        {
          "name": "buyer",
          "type": "address"
        },
        {
          "name": "amount",
          "type": "uint256"
        }
      ],
      "name": "exchange",
      "outputs": [],
      "payable": false,
      "stateMutability": "nonpayable",
      "type": "function"
    }
  ],
  "bytecode": "0x6060604052611388600055341561001557600080fd5b610962806100246000396000f300606060405260043610610078576000357c0100000000000000000000000000000000000000000000000000000000900463ffffffff16806304d0a6471461007d57806323bbc977146100ca5780635280212114610117578063885e9a0914610145578063969e375614610187578063cbcade6a146101e8575b600080fd5b341561008857600080fd5b6100b4600480803573ffffffffffffffffffffffffffffffffffffffff169060200190919050506101fd565b6040518082815260200191505060405180910390f35b34156100d557600080fd5b610101600480803573ffffffffffffffffffffffffffffffffffffffff16906020019091905050610246565b6040518082815260200191505060405180910390f35b610143600480803573ffffffffffffffffffffffffffffffffffffffff1690602001909190505061028f565b005b341561015057600080fd5b610185600480803573ffffffffffffffffffffffffffffffffffffffff169060200190919080359060200190919050506103d2565b005b341561019257600080fd5b6101e6600480803573ffffffffffffffffffffffffffffffffffffffff1690602001909190803573ffffffffffffffffffffffffffffffffffffffff169060200190919080359060200190919050506106db565b005b34156101f357600080fd5b6101fb6108ee565b005b6000600260008373ffffffffffffffffffffffffffffffffffffffff1673ffffffffffffffffffffffffffffffffffffffff168152602001908152602001600020549050919050565b6000600160008373ffffffffffffffffffffffffffffffffffffffff1673ffffffffffffffffffffffffffffffffffffffff168152602001908152602001600020549050919050565b3373ffffffffffffffffffffffffffffffffffffffff168173ffffffffffffffffffffffffffffffffffffffff16141515156102ca57600080fd5b8073ffffffffffffffffffffffffffffffffffffffff1631600160008373ffffffffffffffffffffffffffffffffffffffff1673ffffffffffffffffffffffffffffffffffffffff168152602001908152602001600020819055507f47e7ef24b3022e382e65b1298581281f0ae273ac4f76464efcf5b06769264f2f81600160008473ffffffffffffffffffffffffffffffffffffffff1673ffffffffffffffffffffffffffffffffffffffff16815260200190815260200160002054604051808373ffffffffffffffffffffffffffffffffffffffff1673ffffffffffffffffffffffffffffffffffffffff1681526020018281526020019250505060405180910390a150565b3373ffffffffffffffffffffffffffffffffffffffff168273ffffffffffffffffffffffffffffffffffffffff161415151561040d57600080fd5b80600260003373ffffffffffffffffffffffffffffffffffffffff1673ffffffffffffffffffffffffffffffffffffffff1681526020019081526020016000205411151561045a57600080fd5b80600160008473ffffffffffffffffffffffffffffffffffffffff1673ffffffffffffffffffffffffffffffffffffffff168152602001908152602001600020541115156104a757600080fd5b80600260003373ffffffffffffffffffffffffffffffffffffffff1673ffffffffffffffffffffffffffffffffffffffff1681526020019081526020016000206000828254039250508190555080600260008473ffffffffffffffffffffffffffffffffffffffff1673ffffffffffffffffffffffffffffffffffffffff1681526020019081526020016000206000828254019250508190555080600160008473ffffffffffffffffffffffffffffffffffffffff1673ffffffffffffffffffffffffffffffffffffffff168152602001908152602001600020600082825403925050819055507f47e7ef24b3022e382e65b1298581281f0ae273ac4f76464efcf5b06769264f2f82600160008573ffffffffffffffffffffffffffffffffffffffff1673ffffffffffffffffffffffffffffffffffffffff16815260200190815260200160002054604051808373ffffffffffffffffffffffffffffffffffffffff1673ffffffffffffffffffffffffffffffffffffffff1681526020018281526020019250505060405180910390a17f5253baae951c6c1ec9e52923fcabe2150dbb78bada455bc92028823d8d9747f1338383604051808473ffffffffffffffffffffffffffffffffffffffff1673ffffffffffffffffffffffffffffffffffffffff1681526020018373ffffffffffffffffffffffffffffffffffffffff1673ffffffffffffffffffffffffffffffffffffffff168152602001828152602001935050505060405180910390a15050565b3373ffffffffffffffffffffffffffffffffffffffff168373ffffffffffffffffffffffffffffffffffffffff161415151561071657600080fd5b80600260008573ffffffffffffffffffffffffffffffffffffffff1673ffffffffffffffffffffffffffffffffffffffff1681526020019081526020016000205411151561076357600080fd5b80600260008573ffffffffffffffffffffffffffffffffffffffff1673ffffffffffffffffffffffffffffffffffffffff1681526020019081526020016000206000828254039250508190555080600160008573ffffffffffffffffffffffffffffffffffffffff1673ffffffffffffffffffffffffffffffffffffffff1681526020019081526020016000206000828254019250508190555080600260008473ffffffffffffffffffffffffffffffffffffffff1673ffffffffffffffffffffffffffffffffffffffff168152602001908152602001600020600082825401925050819055507f5253baae951c6c1ec9e52923fcabe2150dbb78bada455bc92028823d8d9747f1838383604051808473ffffffffffffffffffffffffffffffffffffffff1673ffffffffffffffffffffffffffffffffffffffff1681526020018373ffffffffffffffffffffffffffffffffffffffff1673ffffffffffffffffffffffffffffffffffffffff168152602001828152602001935050505060405180910390a1505050565b600054600260003373ffffffffffffffffffffffffffffffffffffffff1673ffffffffffffffffffffffffffffffffffffffff168152602001908152602001600020819055505600a165627a7a72305820aa69175b3c83a52b5c8074c25f9d4cda7a29b4bfe3c82a58553c5b23146877f60029",
  "source": "pragma solidity ^0.4.10;\r\ncontract Token{\r\n\tuint totalSupply=5000;\r\n   //create the map to provide the ether\r\n   mapping(address => uint) balanceEther;\r\n   //create the method to provide PQD token\r\n   mapping(address => uint) balanceOf;\r\n   function PQD() public{\r\n        balanceOf[msg.sender]=totalSupply;\r\n   }\r\n   //create the event to show the data of transaction\r\n   event trade(address from, address to, uint amount);\r\n   //create the event to show the data of  ethereum\r\n   event deposit(address owner, uint amount);\r\n   //create the method to deposit ether\r\n   function depositEther(address acc) public payable{\r\n       require(acc!=msg.sender);\r\n       balanceEther[acc]=acc.balance;\r\n       deposit(acc, balanceEther[acc]);\r\n   }\r\n   //create the method to buy PQD token\r\n   function buyPQD(address owner, uint amount) public{\r\n       require(owner!=msg.sender);\r\n       require(balanceOf[msg.sender]>amount);\r\n       require(balanceEther[owner]>amount);\r\n       balanceOf[msg.sender]-=amount;\r\n       balanceOf[owner]+=amount;\r\n       balanceEther[owner]-=amount;\r\n       deposit(owner,balanceEther[owner]);\r\n       trade(msg.sender,owner,amount);\r\n   }\r\n   //create the method to get balance of the account\r\n   function getWallet(address owner) public constant returns(uint){\r\n       return balanceOf[owner];\r\n   }\r\n    //create the method to check Balance of Ether\r\n   function checkEther(address acc) public constant returns(uint){\r\n       return balanceEther[acc];\r\n   }\r\n   //create the method to trade between to account\r\n   function exchange(address seller, address buyer, uint amount) public{\r\n       require(seller!=msg.sender);\r\n       require(balanceOf[seller]>amount);\r\n       balanceOf[seller]-=amount;\r\n       balanceEther[seller]+=amount;\r\n       balanceOf[buyer]+=amount;\r\n       trade(seller,buyer,amount);\r\n   }\r\n    \r\n}",
  "sourcePath": "D:\\Practical Part 11 - FINAL Project\\contracts\\token.sol",
  "compiler": {
    "name": "solc",
    "version": "0.4.19+commit.c4cbbb05.Emscripten.clang"
  },
  "schemaVersion": "2.0.0",
  "updatedAt": "2018-05-23T14:57:14.604Z"
}